:020000040000FA
:1000000000F4FF1FD5000000DD000000DF0000004D
:1000100000000000000000000000000000000000E0
:10002000000000000000000000000000E1000000EF
:100030000000000000000000E3000000E5000000F8
:10004000E7000000E7000000E7000000E700000014
:10005000E7000000E7000000E7000000E700000004
:10006000E7000000E7000000E7000000E7000000F4
:10007000E7000000E7000000E7000000E7000000E4
:10008000E7000000E7000000E7000000E7000000D4
:10009000E7000000E7000000E7000000E7000000C4
:1000A000E7000000E7000000E7000000E7000000B4
:1000B000E7000000E7000000E7000000E7000000A4
:1000C0000348854600F014F800480047FD01000091
:1000D00000F4FF1F0448804704480047FEE7FEE79E
:1000E000FEE7FEE7FEE7FEE715010000C1000000A5
:1000F000064C0125064E05E0E36807CC2B430C3C7B
:1001000098471034B442F7D3FFF7DEFF44020000F3
:1001100054020000002015490860012040041349E2
:10012000C03948600620124908700020487008460F
:10013000C0788006800E202108430D49C8708020B9
:100140000C49087000200A490871487100BF08482E
:100150008079102108400028F9D000BF0448807938
:100160000C2108400028F9D17047000000810440AC
:1001700000400640005006400E48406B0121090334
:1001800008430C49486300200B49C87008705B2085
:1001900048700020887088710820C8700548806BFE
:1001A000012109030843034988630320000203492E
:1001B000486170470080044000C0064000C0044011
:1001C00002E008C8121F08C1002AFAD17047704720
:1001D000002001E001C1121F002AFBD1704700007E
:1001E000002106E0002200E0521C034B9A42FBDB98
:1001F000491C8142F6DB7047581B00000CB50EA16C
:1002000003C901910090FFF7B7FF13E000240BE052
:1002100000BF0B480079802108400028F9D06846CB
:10022000005D0749C871641C072CF1DBFF20F53025
:10023000FFF7D6FFEAE7000048656C6C6F0D0A0017
:1002400000C006401004000000F0FF1F0004000082
:10025000D0010000000000000000000000000000CD
:10026000000000000000000000000000000000008E
:10027000000000000000000000000000000000007E
:10028000000000000000000000000000000000006E
:10029000000000000000000000000000000000005E
:1002A000000000000000000000000000000000004E
:1002B000000000000000000000000000000000003E
:1002C000000000000000000000000000000000002E
:1002D000000000000000000000000000000000001E
:1002E000000000000000000000000000000000000E
:1002F00000000000000000000000000000000000FE
:1003000000000000000000000000000000000000ED
:1003100000000000000000000000000000000000DD
:1003200000000000000000000000000000000000CD
:1003300000000000000000000000000000000000BD
:1003400000000000000000000000000000000000AD
:10035000000000000000000000000000000000009D
:10036000000000000000000000000000000000008D
:10037000000000000000000000000000000000007D
:10038000000000000000000000000000000000006D
:10039000000000000000000000000000000000005D
:1003A000000000000000000000000000000000004D
:1003B000000000000000000000000000000000003D
:1003C000000000000000000000000000000000002D
:1003D000000000000000000000000000000000001D
:1003E000000000000000000000000000000000000D
:1003F00000000000000000000000000000000000FD
:10040000FFFFFFFFFFFFFFFFFFFFFFFFFEFFFFFFFD
:04000005000000D522
:00000001FF
