:020000040000FA
:1000000008F8FF1FD5000000DD000000DF00000041
:1000100000000000000000000000000000000000E0
:10002000000000000000000000000000E1000000EF
:100030000000000000000000E3000000E5000000F8
:10004000E7000000E7000000E7000000E700000014
:10005000E7000000E7000000E7000000E700000004
:10006000E7000000E7000000E7000000E7000000F4
:10007000E7000000E7000000E7000000E7000000E4
:10008000E7000000E7000000E7000000E7000000D4
:10009000E7000000E7000000E7000000E7000000C4
:1000A000E7000000E7000000E7000000E7000000B4
:1000B000E7000000E7000000E7000000E7000000A4
:1000C0000348854600F02EF900480047C5060000A9
:1000D00008F8FF1F0448804704480047FEE7FEE792
:1000E000FEE7FEE7FEE7FEE735040000C100000082
:1000F000F8B502464A40D40F42004B0052085B0854
:100100009A4202D20246084611464A0023D0C30D45
:100110004A00DDB2120EAD1A202D35DA4902012651
:10012000490AF6058A19002C00D0524220214F1BA3
:100130001146B9402A411018C20D9A4221D0002C14
:1001400017D0012D08DCDA05801AD20F8019D207EA
:10015000DBB200F08FF8F8BDDA05801A0123400009
:100160001B06C01880185A428018CA0F1043490055
:1001700007E04908C2071143DA05801A80194008D0
:10018000801800F06FF8F8BD61000122511A001BC1
:10019000F7E70122D2075140AAE70122D2075040D7
:1001A000A6E7024670B54A40D30FDB0740002DD0CA
:1001B0004A002AD0010E140E000212020919400A48
:1001C000520A8418E50104465443000A120A2E0418
:1001D0005043A4194219200CC543AA18120C01253A
:1001E000AD03521C521912047F39240400D0521C52
:1001F000104301D44000491EC2B20C06C0092018A9
:10020000401C4008802A02D003E0002070BD400856
:100210004000002900DA0020184370BDC217C10F4A
:10022000504010B54018CA079623002100F022F86C
:1002300010BDC20F410040020123400ADB05D20776
:10024000090EC0187F2901DA00207047962903DCC7
:100250009623591AC84001E096398840002AF4D004
:1002600040427047002904DA401C490001D140088F
:100270004000704770B40024050C05D11024000420
:1002800002D1002921D01124050E01D10002083429
:10029000050F01D10001241D850F01D18000A41C90
:1002A000002801DB4000641C002908D020252E1BFB
:1002B0000D46F540A14000D0012129430843010625
:1002C0001B1B000ADB1D02D5002070BC7047DB053C
:1002D000181880180029F8DA401C4900F5D170BCC4
:1002E00040084000704710B541000DD04100090E94
:1002F000962909DC7E290ADC07DB410205D0C00F04
:100300007F21C007C905401810BD002010BD9622EE
:10031000541A20210A1B01469140E040FFF7A2FF3A
:10032000A04010BD064C0125064E05E0E36807CC51
:100330002B430C3C98471034B442F7D3FFF7C4FE6C
:10034000EC0800000C09000070B502464A40D50FC9
:1003500040004A00ED0740085208002814D0002A47
:1003600012D0C40DD30D41020120C0055202490A2A
:10037000520AE41A091812187D34914201D3641C00
:1003800000E04900002C01DA002070BD00239142FA
:1003900001D3891A0343400849000028F7D10029F6
:1003A0000AD0914202D10121C90705E0914201D250
:1003B000012101E00121C943E005C0184019FFF700
:1003C00051FF70BD420005D04200120E52428A42D7
:1003D00001DB00207047C9050818704710B50022DE
:1003E00096231146FFF746FF10BD10B50121FFF718
:1003F000E9FF10BD10B500210846FFF7A5FF10BDAD
:10040000FFFFFFFFFFFFFFFFFFFFFFFFFEFFFFFFFD
:100410000648C06B0121C90708430449C86300208E
:1004200003498870A0204870704700000080044095
:1004300020F00340002015490860012040041349C2
:10044000C0394860062012490870002048700846EC
:10045000C0788006800E202108430D49C870802096
:100460000C49087000200A490871487100BF08480B
:100470008079102108400028F9D000BF0448807915
:100480000C2108400028F9D1704700000081044089
:100490000040064000500640F0B4040C8BB22646E3
:1004A00082B25E430D0C1046370C58433604801957
:1004B0000021794116466E43370C36048019794184
:1004C00026466E438919F0BC70474100080200D0EF
:1004D00004200A0E01D001221043090EFF2901D188
:1004E00002210843012800D1052070475E2110B584
:1004F000C9430807FFF766FF10BD0000F0B50E46C0
:1005000014465100FF22120687B0914203D3111600
:10051000316007B0F0BD01202502C0070543E00DA2
:100520007838C206D20E2020871A6000000E783874
:10053000401181004D4878440B189C464358002ACE
:1005400014D06046406893400146F840034360463B
:10055000806891408646F8400143039160467146A9
:10056000C0689140F84001430F4603E0604641688F
:100570000391876818462946FFF78EFF0291049081
:1005800029460398FFF788FF0391069038462946CD
:10059000FFF782FF0F460698029B3D18049A0399C5
:1005A000BD4201D2012700E000278818C019002FA2
:1005B00002D0884202D903E0884201D2012100E042
:1005C000002159180A4620329709C20C89065203A5
:1005D00040033760114301900846FFF71FFE029069
:1005E0000198FFF7FBFE1221C943FFF7EBFE0190D4
:1005F0002846FFF7F3FE2521C943FFF7E3FE0090ED
:1006000001990298FFF774FD0099FFF771FD012130
:10061000C9024018050B2D0328460299FFF7B9FDC2
:100620000199FFF7B6FD0099FFF7B7FD1049FFF7F5
:10063000B8FD00900F492846FFF7B3FD0099FFF77A
:1006400057FD00900C492846FFF7ABFD0099FFF7D6
:100650004FFD002C00DB5CE701210907C91B31605D
:100660000121C907484007B0F0BD00009203000017
:10067000DB0FC92F22AAFD290000C92F02E008C8FC
:10068000121F08C1002AFAD170477047002001E00C
:1006900001C1121F002AFBD1704700000149086008
:1006A0007047000000F0FF1F002106E0002200E07C
:1006B000521C034B9A42FBDB491C8142F6DB70471C
:1006C000581B00000EB500BF1B4D002419E020464A
:1006D000FFF7A4FD29460090FFF763FD019000F0AD
:1006E00033F807467F21C905FFF702FD1349029041
:1006F000FFF757FD0646FFF79CFDA100104A50503A
:10070000641CFF2CE3DDFFF783FE13E000240FE001
:10071000A0000B49085C0B490870A0000849085A62
:100720000005000F074948700120FFF7BDFF641C5A
:10073000FF2CEDDDEAE70000DB0FC93C00E0FF44E1
:1007400004F0FF1F00F00340F0B502460446514B91
:1007500083B040006946984209D273210906884255
:1007600002D20020C04300E00020009030E05000A2
:10077000494B400898426BD248491046FFF711FD9B
:10078000FFF7B1FD0746FFF754FD8007800F00908B
:1007900043493846FFF705FD019042493846FFF7C7
:1007A00000FD064640493846FFF7FBFC05463F4939
:1007B0003846FFF7F6FC2146FFF7EFFC2946FFF726
:1007C000E8FC3146FFF7E5FC0199FFF7E2FC04463F
:1007D0002546009C002C3FDBE007354E29460846A5
:1007E0001AD0FFF7DEFC05463249FFF7DAFC324942
:1007F000FFF77EFC2946FFF7D4FC3049FFF778FC71
:100800002946FFF7CEFC7F21C905FFF771FCA10740
:1008100000D5704003B0F0BDFFF7C3FC0746284980
:10082000FFF7BFFC2749FFF7B8FC3946FFF7B9FCD3
:100830002549FFF75DFC3946FFF7B3FC2946FFF772
:10084000B0FC2946FFF754FCA107E2D403B0F0BD89
:100850001046FFF753FEBAE7FF21680009068842F9
:1008600009D22846FFF731FE042801D1FFF73EFEEA
:10087000284603B0F0BD884206D10120FFF70EFFE5
:10088000FFF7B8FD03B0F0BD2846FFF7AEFD03B09B
:10089000F0BD0000B61F927E490E494683F9223F03
:1008A0001A61342C0020A23300A0FD390000C93F9A
:1008B00000000080B93AB2BACA9F2A3DDDFFFFBEF0
:1008C000336D4C39DA82083CA0AA2ABE0000000031
:1008D0006E83F9A22915444ED15727FCC0DD34F5AB
:1008E000999562DB4190433CAB6351FE0C090000DB
:1008F00000F0FF1F040000007C060000100900004B
:1009000004F0FF1F040800008C0600000000000037
:04000005000000D522
:00000001FF
