:020000040000FA
:1000000000F4FF1FD5000000DD000000DF0000004D
:1000100000000000000000000000000000000000E0
:10002000000000000000000000000000E1000000EF
:100030000000000000000000E3000000E5000000F8
:10004000E7000000E7000000E7000000E700000014
:10005000E7000000E7000000E7000000E700000004
:10006000E7000000E7000000E7000000E7000000F4
:10007000E7000000E7000000E7000000E7000000E4
:10008000E7000000E7000000E7000000E7000000D4
:10009000E7000000E7000000E7000000E7000000C4
:1000A000E7000000E7000000E7000000E7000000B4
:1000B000E7000000E7000000E7000000E7000000A4
:1000C0000348854600F014F800480047D9010000B5
:1000D00000F4FF1F0448804704480047FEE7FEE79E
:1000E000FEE7FEE7FEE7FEE755010000C100000065
:1000F000064C0125064E05E0E36807CC2B430C3C7B
:1001000098471034B442F7D3FFF7DEFF38020000FF
:10011000480200000C48806B0121890208430A490B
:1001200088630020094948600748C06B0121C9065F
:1001300008430549C8630648006A402188430449CA
:1001400008625420886070470080044000A004408A
:1001500000B0034000201549086001204004134905
:10016000C0394860062012490870002048700846CF
:10017000C0788006800E202108430D49C870802079
:100180000C49087000200A490871487100BF0848EE
:100190008079102108400028F9D000BF04488079F8
:1001A0000C2108400028F9D170470000008104406C
:1001B000004006400050064002E008C8121F08C177
:1001C000002AFAD170477047002001E001C1121FD8
:1001D000002AFBD1704700001348806B0121C9023F
:1001E00008431149886388151049C860086148614F
:1001F00088610F484069782108430D494861FFF73D
:1002000089FF0FE009200B49086000BF094800681A
:10021000802108400028F9D00648006902B2501138
:1002200003490860EEE700000080044000B004408D
:1002300080F00F4000B003401004000000F0FF1FEA
:1002400000040000C80100000000000000000000E1
:10025000000000000000000000000000000000009E
:10026000000000000000000000000000000000008E
:10027000000000000000000000000000000000007E
:10028000000000000000000000000000000000006E
:10029000000000000000000000000000000000005E
:1002A000000000000000000000000000000000004E
:1002B000000000000000000000000000000000003E
:1002C000000000000000000000000000000000002E
:1002D000000000000000000000000000000000001E
:1002E000000000000000000000000000000000000E
:1002F00000000000000000000000000000000000FE
:1003000000000000000000000000000000000000ED
:1003100000000000000000000000000000000000DD
:1003200000000000000000000000000000000000CD
:1003300000000000000000000000000000000000BD
:1003400000000000000000000000000000000000AD
:10035000000000000000000000000000000000009D
:10036000000000000000000000000000000000008D
:10037000000000000000000000000000000000007D
:10038000000000000000000000000000000000006D
:10039000000000000000000000000000000000005D
:1003A000000000000000000000000000000000004D
:1003B000000000000000000000000000000000003D
:1003C000000000000000000000000000000000002D
:1003D000000000000000000000000000000000001D
:1003E000000000000000000000000000000000000D
:1003F00000000000000000000000000000000000FD
:10040000FFFFFFFFFFFFFFFFFFFFFFFFFEFFFFFFFD
:04000005000000D522
:00000001FF
