:020000040000FA
:1000000000F4FF1FD5000000DD000000DF0000004D
:1000100000000000000000000000000000000000E0
:10002000000000000000000000000000E1000000EF
:100030000000000000000000E3000000E5000000F8
:10004000E7000000E7000000E7000000E700000014
:10005000E7000000E7000000E7000000E700000004
:10006000E7000000E7000000E7000000E7000000F4
:10007000E7000000E7000000E7000000E7000000E4
:10008000E7000000E7000000E7000000E7000000D4
:10009000E7000000E7000000E7000000E7000000C4
:1000A000E7000000E7000000E7000000E7000000B4
:1000B000E7000000E7000000E7000000E7000000A4
:1000C0000348854600F014F800480047B5010000D9
:1000D00000F4FF1F0448804704480047FEE7FEE79E
:1000E000FEE7FEE7FEE7FEE715010000C1000000A5
:1000F000064C0125064E05E0E36807CC2B430C3C7B
:1001000098471034B442F7D3FFF7DEFF60020000D7
:1001100070020000002015490860012040041349C6
:10012000C03948600620124908700020487008460F
:10013000C0788006800E202108430D49C8708020B9
:100140000C49087000200A490871487100BF08482E
:100150008079102108400028F9D000BF0448807938
:100160000C2108400028F9D17047000000810440AC
:10017000004006400050064002E008C8121F08C1B7
:10018000002AFAD170477047002001E001C1121F18
:10019000002AFBD170470000002106E0002200E0A9
:1001A000521C034B9A42FBDB491C8142F6DB704731
:1001B000581B000000242248806B0121C90208431B
:1001C0001F49886388151F49C8601F484069082176
:1001D00008431D494861082048601948806B49154B
:1001E000084317498863032000021849086314482C
:1001F000C06B0121490608431149C863084640689D
:100200000121090608430E49486000201049086092
:100210002820C8600F48886064210D4801610C20C7
:100220000B4908600AE00C4C05E0094804616420B1
:10023000FFF7B2FF643409488442F6DBF3E70000BD
:100240000080044000B0044080F00F400090044063
:1002500000900340B4CC00003B0A0000771400007B
:100260001004000000F0FF1F0004000088010000DF
:10027000000000000000000000000000000000007E
:10028000000000000000000000000000000000006E
:10029000000000000000000000000000000000005E
:1002A000000000000000000000000000000000004E
:1002B000000000000000000000000000000000003E
:1002C000000000000000000000000000000000002E
:1002D000000000000000000000000000000000001E
:1002E000000000000000000000000000000000000E
:1002F00000000000000000000000000000000000FE
:1003000000000000000000000000000000000000ED
:1003100000000000000000000000000000000000DD
:1003200000000000000000000000000000000000CD
:1003300000000000000000000000000000000000BD
:1003400000000000000000000000000000000000AD
:10035000000000000000000000000000000000009D
:10036000000000000000000000000000000000008D
:10037000000000000000000000000000000000007D
:10038000000000000000000000000000000000006D
:10039000000000000000000000000000000000005D
:1003A000000000000000000000000000000000004D
:1003B000000000000000000000000000000000003D
:1003C000000000000000000000000000000000002D
:1003D000000000000000000000000000000000001D
:1003E000000000000000000000000000000000000D
:1003F00000000000000000000000000000000000FD
:10040000FFFFFFFFFFFFFFFFFFFFFFFFFEFFFFFFFD
:04000005000000D522
:00000001FF
