:020000040000FA
:1000000000F4FF1FD5000000DD000000DF0000004D
:1000100000000000000000000000000000000000E0
:10002000000000000000000000000000E1000000EF
:100030000000000000000000E3000000E5000000F8
:10004000E7000000E7000000E7000000E700000014
:10005000E7000000E7000000E7000000E700000004
:10006000E7000000E7000000E7000000E7000000F4
:10007000E7000000E7000000E7000000E7000000E4
:10008000E7000000E7000000E7000000E7000000D4
:10009000E7000000E7000000E7000000E7000000C4
:1000A000E7000000E7000000E7000000E7000000B4
:1000B000E7000000E7000000E7000000E7000000A4
:1000C0000348854600F014F800480047BD020000D0
:1000D00000F4FF1F0448804704480047FEE7FEE79E
:1000E000FEE7FEE7FEE7FEE7E5010000C1000000D5
:1000F000064C0125064E05E0E36807CC2B430C3C7B
:1001000098471034B442F7D3FFF7DEFFE402000053
:10011000F40200001A48806B012189020843184943
:1001200088630846806B01210903084314498863EA
:1001300088151449886014484069012189040843DE
:100140001149486101208004486080120D49C8604F
:100150000D4840690121C90408430B494861012049
:10016000C0044860C01209494860074880304069AF
:1001700002210843044980314861022048607047E9
:100180000080044040A0044040F00F4000C0044004
:10019000C107C90F002904D001218904104A9160C8
:1001A00003E0012189040E4A516002210140002927
:1001B00004D00121C9040A4A916003E00121C90465
:1001C000074A516004210140002904D00221044A59
:1001D0008032916003E00221014A80325160704711
:1001E00040F00F40002015490860012040041349E9
:1001F000C03948600620124908700020487008463F
:10020000C0788006800E202108430D49C8708020E8
:100210000C49087000200A490871487100BF08485D
:100220008079102108400028F9D000BF0448807967
:100230000C2108400028F9D17047000000810440DB
:1002400000400640005006401148406B01218902E1
:1002500008430F494863084640680121890608435E
:100260000B49486000200B49C8700870172048707F
:100270000F208872002088700420C8700448806BAA
:100280004915084302498863481503494860704787
:100290000080044000A006400090044002E008C82E
:1002A000121F08C1002AFAD170477047002001E0F0
:1002B00001C1121F002AFBD170470000FFF7C4FFE5
:1002C000FFF728FF0BE000BF054800792021084018
:1002D0000028F9D00248C3791846FFF759FFF2E722
:1002E00000A006401004000000F0FF1F0004000002
:1002F000AC02000000000000000000000000000050
:1003000000000000000000000000000000000000ED
:1003100000000000000000000000000000000000DD
:1003200000000000000000000000000000000000CD
:1003300000000000000000000000000000000000BD
:1003400000000000000000000000000000000000AD
:10035000000000000000000000000000000000009D
:10036000000000000000000000000000000000008D
:10037000000000000000000000000000000000007D
:10038000000000000000000000000000000000006D
:10039000000000000000000000000000000000005D
:1003A000000000000000000000000000000000004D
:1003B000000000000000000000000000000000003D
:1003C000000000000000000000000000000000002D
:1003D000000000000000000000000000000000001D
:1003E000000000000000000000000000000000000D
:1003F00000000000000000000000000000000000FD
:10040000FFFFFFFFFFFFFFFFFFFFFFFFFEFFFFFFFD
:04000005000000D522
:00000001FF
