:020000040000FA
:1000000008F4FF1FD5000000DD000000DF00000045
:1000100000000000000000000000000000000000E0
:10002000000000000000000000000000E1000000EF
:100030000000000000000000E3000000E5000000F8
:10004000E7000000E7000000E7000000E700000014
:10005000E7000000E7000000E7000000E700000004
:10006000E7000000E7000000E7000000E7000000F4
:10007000E7000000E7000000E7000000E7000000E4
:10008000E7000000E7000000E7000000E7000000D4
:10009000E7000000E7000000E7000000E7000000C4
:1000A000E7000000E7000000E7000000E7000000B4
:1000B000E7000000E7000000E7000000E7000000A4
:1000C0000348854600F014F800480047630200002A
:1000D00008F4FF1F0448804704480047FEE7FEE796
:1000E000FEE7FEE7FEE7FEE7E1010000C1000000D9
:1000F000064C0125064E05E0E36807CC2B430C3C7B
:1001000098471034B442F7D3FFF7DEFF78020000BF
:100110009802000017480068174948601548406871
:1001200015498039886000201449086004E01348AC
:100130000068401C11490860104800681049884256
:10014000F5D30C4800680C4988600A4840680A49A1
:100150008039486000200949086004E007480068C9
:10016000401C064908600548006805498842F5D3E7
:100170007047000070020000C0F00F4000F0FF1F49
:10018000C0C62D001148806B0121090308430F49A7
:1001900088630846806B091508430C4988638815F5
:1001A0000B4948600B4840690B49096808430949F5
:1001B000486188150949C860064880384069064981
:1001C000496808430349803948617047008004400A
:1001D00000C00440C0F00F407002000040A0044086
:1001E000002015490860012040041349C0394860C7
:1001F000062012490870002048700846C078800622
:10020000800E202108430D49C87080200C490870D9
:1002100000200A490871487100BF08488079102100
:1002200008400028F9D000BF044880790C2108401C
:100230000028F9D1704700000081044000400640CA
:100240000050064002E008C8121F08C1002AFAD177
:1002500070477047002001E001C1121F002AFBD146
:100260007047FFF78FFF01E0FFF754FFFCE7000046
:1002700002000000000008001004000000F0FF1F52
:1002800004000000440200001404000004F0FF1FFA
:100290000404000054020000000000000000000000
:1002A000000000000000000000000000000000004E
:1002B000000000000000000000000000000000003E
:1002C000000000000000000000000000000000002E
:1002D000000000000000000000000000000000001E
:1002E000000000000000000000000000000000000E
:1002F00000000000000000000000000000000000FE
:1003000000000000000000000000000000000000ED
:1003100000000000000000000000000000000000DD
:1003200000000000000000000000000000000000CD
:1003300000000000000000000000000000000000BD
:1003400000000000000000000000000000000000AD
:10035000000000000000000000000000000000009D
:10036000000000000000000000000000000000008D
:10037000000000000000000000000000000000007D
:10038000000000000000000000000000000000006D
:10039000000000000000000000000000000000005D
:1003A000000000000000000000000000000000004D
:1003B000000000000000000000000000000000003D
:1003C000000000000000000000000000000000002D
:1003D000000000000000000000000000000000001D
:1003E000000000000000000000000000000000000D
:1003F00000000000000000000000000000000000FD
:10040000FFFFFFFFFFFFFFFFFFFFFFFFFEFFFFFFFD
:0404100000000000E8
:04000005000000D522
:00000001FF
