:020000040000FA
:1000000000F4FF1FD5000000DD000000DF0000004D
:1000100000000000000000000000000000000000E0
:10002000000000000000000000000000E1000000EF
:100030000000000000000000E3000000E5000000F8
:10004000E7000000E7000000E7000000E700000014
:10005000E7000000E7000000E7000000E700000004
:10006000E7000000E7000000E7000000E7000000F4
:100070003D020000E7000000E7000000E70000008C
:10008000E7000000E7000000E7000000E7000000D4
:10009000E7000000E7000000E7000000E7000000C4
:1000A000E7000000E7000000E7000000E7000000B4
:1000B000E7000000E7000000E7000000E7000000A4
:1000C0000348854600F014F800480047D7020000B6
:1000D00000F4FF1F0448804704480047FEE7FEE79E
:1000E000FEE7FEE7FEE7FEE7D9010000C1000000E1
:1000F000064C0125064E05E0E36807CC2B430C3C7B
:1001000098471034B442F7D3FFF7DEFFE80200004F
:10011000F80200002148806B0121890208431F4931
:1001200088630846806B0121090308431B498863E3
:1001300088151B4988601B484069012189040843D0
:100140001849486108464068012189040843154957
:10015000486088151249C860124840690121C904E5
:10016000084310494861084640680121C904084312
:100170000C49486088150C4948600A48803040693D
:10018000022108430749803148610846406802213E
:1001900008430449803148607047000000800440F3
:1001A00040A0044040F00F4000C00440632803D149
:1001B0000121C904074A9160632801D1012100E0AF
:1001C0000021C943002903D00121C904014A51601B
:1001D0007047000040F00F400020154908600120E2
:1001E00040041349C03948600620124908700020B5
:1001F00048700846C0788006800E202108430D49CB
:10020000C87080200C49087000200A4908714871A4
:1002100000BF08488079102108400028F9D000BFAD
:10022000044880790C2108400028F9D1704700006B
:1002300000810440004006400050064000B50348DD
:10024000C3791846FFF7B2FF00BD000000A00640CA
:100250001548406B01218902084313494863084649
:1002600040680121890608430F49486000200F4972
:10027000C8700870172048700F208872002088709E
:100280002420C8700A48006801210903084308496E
:1002900008600548806B01214902084302498863D0
:1002A00048150449486070470080044000A006409B
:1002B00000E100E00090044002E008C8121F08C1FD
:1002C000002AFAD170477047002001E001C1121FD7
:1002D000002AFBD1704772B6FFF7BAFFFFF71AFF8B
:1002E00062B600BFFEE700001004000000F0FF1F30
:1002F00000040000C8020000000000000000000030
:1003000000000000000000000000000000000000ED
:1003100000000000000000000000000000000000DD
:1003200000000000000000000000000000000000CD
:1003300000000000000000000000000000000000BD
:1003400000000000000000000000000000000000AD
:10035000000000000000000000000000000000009D
:10036000000000000000000000000000000000008D
:10037000000000000000000000000000000000007D
:10038000000000000000000000000000000000006D
:10039000000000000000000000000000000000005D
:1003A000000000000000000000000000000000004D
:1003B000000000000000000000000000000000003D
:1003C000000000000000000000000000000000002D
:1003D000000000000000000000000000000000001D
:1003E000000000000000000000000000000000000D
:1003F00000000000000000000000000000000000FD
:10040000FFFFFFFFFFFFFFFFFFFFFFFFFEFFFFFFFD
:04000005000000D522
:00000001FF
