:020000040000FA
:1000000000F4FF1FD5000000DD000000DF0000004D
:1000100000000000000000000000000000000000E0
:10002000000000000000000000000000E1000000EF
:100030000000000000000000E3000000E5000000F8
:10004000E7000000E7000000E7000000E700000014
:10005000E7000000E7000000E7000000E700000004
:10006000E7000000E7000000E7000000E7000000F4
:10007000E7000000E7000000E7000000E7000000E4
:10008000E7000000E7000000E7000000E7000000D4
:10009000E7000000E7000000E7000000E7000000C4
:1000A000E7000000E7000000E7000000E7000000B4
:1000B000E7000000E7000000E7000000E7000000A4
:1000C0000348854600F014F800480047810200000C
:1000D00000F4FF1F0448804704480047FEE7FEE79E
:1000E000FEE7FEE7FEE7FEE7FD010000C1000000BD
:1000F000064C0125064E05E0E36807CC2B430C3C7B
:1001000098471034B442F7D3FFF7DEFFB002000087
:10011000C00200000748C06B0121C9060843054919
:10012000C8630548006A4021884303490862542097
:10013000886070470080044000B003401648806B20
:10014000012189020843144988630846806B012114
:1001500009030843104988638815104988601048CE
:1001600040690121890408430D49486188150B49FC
:10017000C8600B4840690121C90408430849486127
:1001800088150849486006488030406902210843C4
:1001900003498031486170470080044040A004401A
:1001A00040F00F4000C00440C107C90F002904D02F
:1001B00001218904104A916003E0012189040E4A5B
:1001C000516002210140002904D00121C9040A4ADA
:1001D000916003E00121C904074A516004210140F4
:1001E000002904D00221044A8032916003E00221F8
:1001F000014A80325160704740F00F40002015499D
:100200000860012040041349C039486006201249A3
:100210000870002048700846C0788006800E2021B3
:1002200008430D49C87080200C49087000200A4915
:100230000871487100BF08488079102108400028E3
:10024000F9D000BF044880790C2108400028F9D17A
:100250007047000000810440004006400050064006
:1002600002E008C8121F08C1002AFAD1704770477F
:10027000002001E001C1121F002AFBD170470000DD
:10028000FFF75CFFFFF746FF0FE01A200749086001
:1002900000BF06480068802108400028F9D00348C4
:1002A000006903B21846FFF77FFFEEE700B0034096
:1002B0001004000000F0FF1F0004000070020000A6
:1002C000000000000000000000000000000000002E
:1002D000000000000000000000000000000000001E
:1002E000000000000000000000000000000000000E
:1002F00000000000000000000000000000000000FE
:1003000000000000000000000000000000000000ED
:1003100000000000000000000000000000000000DD
:1003200000000000000000000000000000000000CD
:1003300000000000000000000000000000000000BD
:1003400000000000000000000000000000000000AD
:10035000000000000000000000000000000000009D
:10036000000000000000000000000000000000008D
:10037000000000000000000000000000000000007D
:10038000000000000000000000000000000000006D
:10039000000000000000000000000000000000005D
:1003A000000000000000000000000000000000004D
:1003B000000000000000000000000000000000003D
:1003C000000000000000000000000000000000002D
:1003D000000000000000000000000000000000001D
:1003E000000000000000000000000000000000000D
:1003F00000000000000000000000000000000000FD
:10040000FFFFFFFFFFFFFFFFFFFFFFFFFEFFFFFFFD
:04000005000000D522
:00000001FF
