:020000040000FA
:1000000000F4FF1FD5000000DD000000DF0000004D
:1000100000000000000000000000000000000000E0
:10002000000000000000000000000000E1000000EF
:100030000000000000000000E3000000E5000000F8
:10004000E7000000E7000000E7000000E700000014
:10005000E7000000E7000000E7000000E700000004
:10006000E7000000E7000000E7000000E7000000F4
:10007000E7000000E7000000E7000000E7000000E4
:10008000E7000000E7000000E7000000E7000000D4
:10009000E7000000E7000000E7000000E7000000C4
:1000A000E7000000E7000000E7000000E7000000B4
:1000B000E7000000E7000000E7000000E7000000A4
:1000C0000348854600F014F80048004799010000F5
:1000D00000F4FF1F0448804704480047FEE7FEE79E
:1000E000FEE7FEE7FEE7FEE715010000C1000000A5
:1000F000064C0125064E05E0E36807CC2B430C3C7B
:1001000098471034B442F7D3FFF7DEFFC402000073
:10011000D402000000201549086001204004134962
:10012000C03948600620124908700020487008460F
:10013000C0788006800E202108430D49C8708020B9
:100140000C49087000200A490871487100BF08482E
:100150008079102108400028F9D000BF0448807938
:100160000C2108400028F9D17047000000810440AC
:10017000004006400050064002E008C8121F08C1B7
:10018000002AFAD170477047002001E001C1121F18
:10019000002AFBD1704700004349896B012292027B
:1001A0001143414A91631146896B012212031143A5
:1001B0003D4A916391153D4A91603D49496901224B
:1001C000920411433A4A51619115384AD160384935
:1001D00049690122D2041143354A51619115354ACA
:1001E000516033498031496902221143304A8032DB
:1001F00051612D49896B0122D20211432A4A916330
:1002000011152D4A11632849C9680122120691432C
:10021000254AD1601146C96B012212061143224AB8
:10022000D163114649680122120611431E4A5160EA
:100230000021224A11608021116021499160002132
:10024000516011460968102211431C4A116029E0CF
:100250001A49496888B2C107C90F002904D0012191
:100260008904134A916003E001218904104A516016
:1002700002210140002904D00121C9040C4A9160E7
:1002800003E00121C9040A4A516004210140002908
:1002900004D00221064A8032916003E00221044A20
:1002A00080325160D4E700000080044040A0044048
:1002B00040F00F4000C0044000B004400080034004
:1002C000FFFF00001004000000F0FF1F000400000A
:1002D0008801000000000000000000000000000095
:1002E000000000000000000000000000000000000E
:1002F00000000000000000000000000000000000FE
:1003000000000000000000000000000000000000ED
:1003100000000000000000000000000000000000DD
:1003200000000000000000000000000000000000CD
:1003300000000000000000000000000000000000BD
:1003400000000000000000000000000000000000AD
:10035000000000000000000000000000000000009D
:10036000000000000000000000000000000000008D
:10037000000000000000000000000000000000007D
:10038000000000000000000000000000000000006D
:10039000000000000000000000000000000000005D
:1003A000000000000000000000000000000000004D
:1003B000000000000000000000000000000000003D
:1003C000000000000000000000000000000000002D
:1003D000000000000000000000000000000000001D
:1003E000000000000000000000000000000000000D
:1003F00000000000000000000000000000000000FD
:10040000FFFFFFFFFFFFFFFFFFFFFFFFFEFFFFFFFD
:04000005000000D522
:00000001FF
