:020000040000fa
:080000000002040000000000f2
:020000040000fa
:100400000f8020000edf20000e0188000000000099
:100410000c000700c0602000010020001100070050
:10042000000020000000e000020032000000020096
:1004300000000000c0050200000000000040da00db
:100440000000fe004440a900800120000000e00000
:100450000300320000002000a00188004440a800f2
:100460000000060091018800800078000000eb0089
:1004700015003700e280400032a0b4009101ba00bc
:10048000e280400032a0b4009102ba00e280400055
:1004900032a0b4000002eb00472bde00f507b200eb
:1004a000602ce10004003a000059eb008301e900f0
:1004b000fdff3e00040037006128e100010032002a
:1004c0000082eb00040007001101ba000200e00006
:1004d000e8ff3a00000006003159ba008301e90044
:1004e0000c0032002159ba008301e90008003200f3
:1004f0000400e00003003a00e280400032a0b400b3
:10050000f5ff370011d9ba008301e900faff3a007c
:100510008100e800e180400032a0b4000000060045
:080520000040da000000fe00bb
:020000040000fa
:0200000401f009
:04000800ffff0000f6
:020000040000fa
:0200000401f009
:04000c007aff000077
:020000040000fa
:0200000401f009
:04001000baff000033
:020000040000fa
:0200000401f009
:040014007fff00006a
:020000040000fa
:0200000401f009
:04001800f6ff0000ef
:020000040000fa
:0200000401f009
:040020003fff00009e
:020000040000fa
:1000080090020000900200009002000090020000a0
:100018009002000090020000900200009002000090
:100028009002000090020000900200009002000080
:100038009002000090020000900200009002000070
:020000040000fa
:020000040000fa
:100528004144000043200000566100006c75000043
:10053800653a00002000000030310000323300002e
:10054800343500003637000038390000000000005c
:020000040000fa
:100558000000fa00c922a900c902a9000000eb00a6
:1005680040168800cd22a900cd02a9000000eb00aa
:100578006016880000352c00010020009601070055
:1005880080c3b3001b000700c0c0b30019000700f8
:1005980060c0b3001700070010c0b30015000700c3
:1005a8000080fa00000006000000fa0010c0b30046
:1005b8001000070080a92300010020008601070021
:1005c8000080fa00000006000000fa00cd22a80012
:1005d800803e2000010020007f010700cd22a900f5
:1005e800803e2000010020007b0107000080fa0007
:1005f800000006000200fa00004f7800cd02a900b2
:100608006116800000f02f000080600060168800ee
:100618009e80fb00601680000080700060168800d5
:10062800e9ff07000080fa00000006000200fa0057
:10063800004f7800cd02a8006116800000f02f005e
:1006480000806000601688009e80fb0060168000b5
:100658000080700060168800dbff07000080fa0049
:10066800000006000200fa00000f780004003700be
:100678001e007800104078001e0fe800ebff07000e
:100688001e007800104078000004e000f8ff3a00ef
:100698000080fa00000006000400fa00004f78000d
:1006a8001e4078000004e00003003d00f0c8b300dd
:1006b8009e4f100006003600f0cbb3009e4f10008e
:1006c80008003600f0ccb3009e4f100005003e0035
:1006d8001e407800c7ff0700100020001007980090
:1006e800020037000000eb00100798001e00900081
:1006f8000080fa00000006000e00fa00600798006b
:10070800002a28000a000900305f7800be00b10006
:100718006e009000e90f500005003e006e0090004a
:100728000e00400010407800c0ff0700c4003700ea
:100738006e009000e90f500014003600ee009000a3
:1007480030062000808f500010003e006e009000a0
:10075800a2002000110009000280d8000e0040000d
:1007680010407800b1ff07006e009000a200200042
:10077800110009000280d8008000fd000e00400032
:1007880010407800a9ff0700ad003700ee00900088
:1007980030062000808f500023003600ee009000c5
:1007a800703e2000808f50001f003e006e009000b9
:1007b80042062000110009000280d8000e00400007
:1007c8001040780099ff07006e0090004206200054
:1007d800110009000280d8008000fd00a20020005e
:1007e800110009000280d8000e0040001040780077
:1007f8008eff07006e0090004206200011000900dd
:100808000280d8008000fd00a2002000110009002d
:100818000280d8008000fd000e00400010407800e3
:1008280082ff070086003700ee009000703e20002f
:10083800808f500036003600ee009000f0702200e5
:10084800808f500032003e006e009000823e2000f3
:10085800110009000280d8000e0040001040780006
:1008680072ff07006e009000823e20001100090010
:100878000280d8008000fd00420620001100090017
:100888000280d8000e0040001040780067ff070083
:100898006e009000823e2000110009000280d800fe
:1008a8008000fd0042062000110009000280d800e7
:1008b8008000fd00a2002000110009000280d8007d
:1008c8000e0040001040780058ff07006e009000ae
:1008d800823e2000110009000280d8008000fd003f
:1008e80042062000110009000280d8008000fd00a7
:1008f800a2002000110009000280d8008000fd003d
:100908000e0040001040780048ff07004c003700f8
:10091800ee009000f0702200808f500048003600f2
:100928006e00900002712200110009000280d800b8
:100938000e004000104078003cff07006e00900059
:1009480002712200110009000280d8008000fd0019
:10095800823e2000110009000280d8000e004000ed
:100968001040780031ff07006e00900002712200ed
:10097800110009000280d8008000fd00823e20009e
:10098800110009000280d8008000fd004206200006
:10099800110009000280d8000e00400010407800c5
:1009a80022ff07006e00900002712200110009006a
:1009b8000280d8008000fd00823e2000110009005e
:1009c8000280d8008000fd004206200011000900c6
:1009d8000280d8008000fd00a2002000110009005c
:1009e8000280d8000e004000104078000fff07007a
:1009f8006e00900002712200110009000280d800e8
:100a08008000fd00823e2000110009000280d8000d
:100a18008000fd0042062000110009000280d80075
:100a28008000fd00a2002000110009000280d8000b
:100a38008000fd000e00400010407800fbfe07001b
:100a48000080fa00000006000000fa0021e3a90077
:100a580025e3a900513220009140780000ceb30070
:100a680000c06000f040b30025e3b7004132200029
:100a78009140780000ccb30000c0600024e3b700c8
:100a88002343a90022e3a9002132200091407800e5
:100a980030ccb30000c0600022e3b7002223a900d5
:100aa8002203a90021a3a900113220009140780057
:100ab800c0cfb30000c0600021e3b70020c3bf006f
:100ac8007f40600020e3b7002043a9000080fa00bf
:100ad800000006000200fa00004f780021e3a90098
:100ae800401f2000010020003b0007009e407800c6
:100af8006fc060006f4060006f4060006f41600031
:100b0800813220009140780000cfb30000c060001f
:100b18000240700028e3b700401f200001002000b9
:100b28002d00070021e3a8000080fa00000006005d
:100b38000000fa002023a80020c3bf006240600024
:100b48000004e000fcff32002023a90020c3bf00fe
:100b5800624060000004e000fcff3a0020c3bf00d0
:100b6800614060000004e000fcff320000188000d3
:100b78000080fa00000006000e00fa000e80e8006f
:100b8800412928000b00090031587800c000b10045
:100b98000000eb00000f78006dfe0700c002a800ff
:100ba800a9ff07000040eb00caff07007efe070010
:100bb8000e80e800abfe0700ddff0700000f78009d
:100bc8001e007800ccfe070000122a0071002000e9
:080bd80001000700f5ff3700e2
:020000040000fa
:100be000f03fb1000180b10006003500ee030900be
:100bf00000000000403fb1000180b100fbff3d005c
:100c00001000b000203fb000020035000080090055
:080c10000000000000000600d6
:020000040000fa
:040c180000000000d8
:00000001FF
